:020000040800F2
:10000000005000202D08000869070008710700084B
:100010007907000881070008890700080000000030
:100020000000000000000000000000009107000830
:100030009D07000800000000A9070008B507000898
:10004000750800087508000875080008750800089C
:10005000750800087508000875080008750800088C
:10006000750800087508000875080008750800087C
:10007000750800087508000875080008750800086C
:10008000750800087508000875080008750800085C
:10009000750800087508000875080008750800084C
:1000A000750800087508000875080008750800083C
:1000B000750800087508000875080008750800082C
:1000C000750800087508000875080008750800081C
:1000D000750800087508000875080008750800080C
:1000E0007508000875080008750800080000000081
:1000F0000000000000000000000000000000000000
:0C01000000000000000000005FF808F1A3
:10010C0010B5054C237833B9044B13B10448AFF345
:10011C0000800123237010BD10000020000000009F
:10012C00C821000808B5034B1BB103490348AFF3C2
:10013C00008008BD0000000014000020C821000849
:10014C00034613F8012B002AFBD1181A013870470B
:10015C0080B586B000AF78607B6804331B687B6128
:10016C007B693B6172B600BF00F096FB7B681B6835
:10017C00FB60FB6883F3088800BF3B69984700BFAE
:10018C001837BD4680BD80B584B000AFF860B9604B
:10019C007A60BB689B081A46F968786800F009FD1C
:1001AC00034618461037BD4680BD80B586B000AFFB
:1001BC00F860B9607A603B6007F110014FF0FF33D3
:1001CC000422786801F0DFFD3A68B968F868FFF737
:1001DC00DAFF78613B697A699A420CBF01230023EC
:1001EC00DBB218461837BD4680BD80B588B000AF6D
:1001FC007860396000F080FD0023FB6107F10C038F
:10020C0000221A605A609A60DA607B687B613B68F6
:10021C009B0A0133BB6107F11C0207F10C03114669
:10022C00184600F051FE00F08DFD00BF2037BD4692
:10023C0080BDB0B586B000AFF860B9607A6000F0F0
:10024C005BFD00237B611DE0BA687B6913441B785E
:10025C001AB27B690133B9680B441B781B021BB2C1
:10026C0013431BB27B82FA687B69D1187B8A00220C
:10027C001C46154622462B46012000F0CDFC7B691E
:10028C0002337B617A697B689A42DDD300F05AFDB8
:10029C0000BF1837BD46B0BD80B5ADF5826D00AF5F
:1002AC0007F58263A3F20C43186007F58263A3F58C
:1002BC00826319604FF44043C7F808340023C7F831
:1002CC000C3435E007F58263A3F20C431A68D7F8B7
:1002DC000C3413441A4607F58263A3F58163184660
:1002EC0011464FF480631A4601F05AFF07F58263FA
:1002FC00A3F582631A68D7F80C3413444FF4806169
:10030C001846FFF772FF07F58263A3F582631A683C
:10031C00D7F80C34134407F108014FF480621846E7
:10032C00FFF787FFD7F80C3403F58063C7F80C345C
:10033C00D7F80C24D7F808349A42C3D300BF00BFB7
:10034C0007F58267BD4680BD80B500AF4FF4005104
:10035C00044801F014F84FF47A7000F007FB00BF6A
:10036C00F4E700BF0010014080B582B000AF7860A8
:10037C000B467B807B881946786800F0D1FF0346DA
:10038C00012B0CBF01230023DBB218460837BD46F6
:10039C0080BD000080B5ADF5404D82B000AF00F0DF
:1003AC0065FA00F071F800F0E9F800F0A9F800F037
:1003BC00BBF801212A48FFF7D7FF0346002B45D095
:1003CC002849294800F0FCF907F10803043B2549AA
:1003DC00184600F009FA07F5404303F104031860CE
:1003EC0007F108000438214B1E4A07F5404101F182
:1003FC0004010968FFF7D9FE0346002B20D01949E8
:10040C001B4800F0DDF91B491B48FFF745FF07F5BA
:10041C00404303F1040319681748FFF7E6FE07F1A0
:10042C000803043B07F5404202F104021268194626
:10043C001148FFF7FEFE0B49104800F0C1F905E02A
:10044C0008490F4800F0BCF9FFF77EFF05490D483D
:10045C0000F0B6F90848FFF77BFE00BFFDE700BFD0
:10046C000008014034000020E02100082C0000208E
:10047C00F821000800C000080040000820220008F5
:10048C00402200086822000880B590B000AF07F148
:10049C00180328220021184601F056FE3B1D0022AD
:1004AC001A605A609A60DA601A610223BB610123F8
:1004BC00BB621023FB6200237B6307F11803184611
:1004CC0000F076FF0346002B01D000F0A5F80F23B7
:1004DC007B600023BB600023FB6000233B61002397
:1004EC007B613B1D0021184601F0E4F90346002B0B
:1004FC0001D000F091F800BF4037BD4680BD000030
:10050C0080B500AF064B074A1A60054800F035FB72
:10051C000346002B01D000F07FF800BF80BD00BF68
:10052C002C0000200030024080B500AF114B124A65
:10053C001A60104B4FF4E1325A600E4B00229A6055
:10054C000C4B0022DA600B4B00221A61094B0C2277
:10055C005A61084B00229A61064B0022DA61054869
:10056C0001F036FB0346002B01D000F055F800BF1C
:10057C0080BD00BF340000200038014080B586B03B
:10058C0000AF07F1080300221A605A609A60DA6023
:10059C001E4B9B691D4A43F0100393611B4B9B69D7
:1005AC0003F010037B607B68184B9B69174A43F080
:1005BC0004039361154B9B6903F004033B603B6898
:1005CC0000224FF40051124800F0C1FE4FF40053CA
:1005DC00BB600123FB6000233B6102237B6107F1BD
:1005EC00080319460A4800F017FD0123BB600023DD
:1005FC00FB6000233B6107F108031946054800F036
:10060C000BFD00BF1837BD4680BD00BF0010024077
:10061C00001001400008014080B400AF72B600BF6A
:10062C0000BFFDE780B485B000AF154B9B69144A41
:10063C0043F001039361124B9B6903F00103BB6010
:10064C00BB680F4BDB690E4A43F08053D3610C4BF4
:10065C00DB6903F080537B607B680A4B5B68FB6053
:10066C00FB6823F0E063FB60FB6843F00073FB6006
:10067C00044AFB68536000BF1437BD4680BC70470A
:10068C00001002400000014080B485B000AF7860DB
:10069C007B681B68094A93420BD1094B5B69084A7A
:1006AC0043F040035361064B5B6903F04003FB606E
:1006BC00FB6800BF1437BD4680BC70470030024059
:1006CC000010024080B588B000AF786007F11003CD
:1006DC0000221A605A609A60DA607B681B681C4AB8
:1006EC00934231D11B4B9B691A4A43F4804393616B
:1006FC00184B9B6903F48043FB60FB68154B9B69AB
:10070C00144A43F004039361124B9B6903F00403F6
:10071C00BB60BB684FF400733B6102237B61032316
:10072C00FB6107F1100319460B4800F075FC4FF400
:10073C0080633B6100237B610023BB6107F11003E5
:10074C001946054800F068FC00BF2037BD4680BD47
:10075C0000380140001002400008014080B400AF96
:10076C0000BFFDE780B400AF00BFFDE780B400AF71
:10077C0000BFFDE780B400AF00BFFDE780B400AF61
:10078C0000BFFDE780B400AF00BFBD4680BC704722
:10079C0080B400AF00BFBD4680BC704780B400AFD2
:1007AC0000BFBD4680BC704780B500AF00F0C2F8FA
:1007BC0000BF80BD80B400AF00BFBD4680BC704799
:1007CC0080B582B000AF786039607868FFF7B8FC0C
:1007DC0003469AB24FF0FF337968386801F048FA53
:1007EC0000BF0837BD4680BD80B584B000AF7860CF
:1007FC0039600023FB6007F10C0141F288330422BD
:10080C00386801F0C0FAFB689AB241F28833796813
:10081C00386801F0B8FAFB6818461037BD4680BD41
:10082C00FFF7C8FF0B480C490C4A002302E0D458D0
:10083C00C4500433C4188C42F9D3094A094C002320
:10084C0001E013600432A242FBD301F085FCFFF7F8
:10085C00A1FD7047000000200C000020C4220008FD
:10086C0010000020A0000020FEE7000080B500AFC3
:10087C00084B1B68074A43F010031360032000F079
:10088C0049F90F2000F026F8FFF7CCFE002318469C
:10089C0080BD00BF0020024080B500AF094B4FF077
:1008AC00FF321A61074B00221A61064B4FF0FF32E0
:1008BC00DA60044B0022DA6000F006F800231846D8
:1008CC0080BD00BF0010024080B400AF00BFBD4629
:1008DC0080BC704780B582B000AF7860124B1A684C
:1008EC00124B1B7819464FF47A73B3FBF1F3B2FB3E
:1008FC00F3F3184600F035F90346002B01D0012321
:10090C000EE07B680F2B0AD8002279684FF0FF307D
:10091C0000F00BF9064A7B681360002300E001230A
:10092C0018460837BD4680BD000000200800002096
:10093C000400002080B400AF054B1B781A46054B11
:10094C001B681344034A136000BFBD4680BC70474C
:10095C00080000207C00002080B400AF024B1B6814
:10096C001846BD4680BC70477C00002080B584B022
:10097C0000AF7860FFF7F0FFB8607B68FB60FB6846
:10098C00B3F1FF3F05D00A4B1B781A46FB681344A2
:10099C00FB6000BFFFF7E0FF0246BB68D31AFA68A2
:1009AC009A42F7D800BF00BF1037BD4680BD00BFCC
:1009BC000800002080B485B000AF78607B6803F03D
:1009CC000703FB600C4BDB68BB60BA684FF6FF0398
:1009DC001340BB60FB681A02BB68134343F0BF6350
:1009EC0043F40033BB60044ABB68D36000BF1437C8
:1009FC00BD4680BC704700BF00ED00E080B400AF86
:100A0C00044BDB681B0A03F007031846BD4680BC89
:100A1C00704700BF00ED00E080B483B000AF034628
:100A2C003960FB7197F90730002B0ADB3B68DAB2AF
:100A3C000C4997F907301201D2B20B4483F800230A
:100A4C000AE03B68DAB20849FB7903F00F03043B78
:100A5C001201D2B20B441A7600BF0C37BD4680BCD3
:100A6C00704700BF00E100E000ED00E080B489B009
:100A7C0000AFF860B9607A60FB6803F00703FB61B4
:100A8C00FB69C3F10703042B28BF0423BB61FB697B
:100A9C000433062B02D9FB69033B00E000237B6186
:100AAC004FF0FF32BB6902FA03F3DA43BB681A401A
:100ABC007B699A404FF0FF317B6901FA03F3D9430C
:100ACC007B680B40134318462437BD4680BC7047E7
:100ADC0080B582B000AF78607B68013BB3F1807F5A
:100AEC0001D301230FE00A4A7B68013B53600F21BD
:100AFC004FF0FF30FFF790FF054B00229A60044B3C
:100B0C0007221A60002318460837BD4680BD00BF77
:100B1C0010E000E080B582B000AF78607868FFF735
:100B2C0049FF00BF0837BD4680BD80B586B000AF19
:100B3C000346B9607A60FB7300237B61FFF75EFFAD
:100B4C0078617A68B9687869FFF790FF024697F97F
:100B5C000F3011461846FFF75FFF00BF1837BD4630
:100B6C0080BD80B582B000AF78607868FFF7B0FFC9
:100B7C00034618460837BD4680BD80B582B000AF2D
:100B8C0078607B68002B01D101230EE07B685B79D8
:100B9C00DBB2002B05D17B6800221A717868FFF755
:100BAC0073FD7B6801225A71002318460837BD4635
:100BBC0080BD80B487B000AFF860B9607A60002364
:100BCC003B61FB6802225A71FB681B689A68FB68E0
:100BDC001B6842F001029A6000237B610AE07B698A
:100BEC009B00BA681A44FB681B6812681A607B6920
:100BFC0001337B617A697B689A42F0D3FB681B688E
:100C0C001B683B61FB6801225A713B6918461C3713
:100C1C00BD4680BC70470000F0B587B000AFF860EF
:100C2C00B960C7E900230123FB750023BB750023C2
:100C3C007B752F4B1B7E012B01D1022354E02C4BD7
:100C4C0001221A764CF2503000F0A8F80346FB75DE
:100C5C00FB7D002B44D1FB68012B02D101237B755A
:100C6C0007E0FB68022B02D102237B7501E0042311
:100C7C007B750023BB752DE0BB7D5A00BB6802EB76
:100C8C00030CBB7D1901D7E90023C1F12006A1F1AA
:100C9C00200022FA01F403FA06F6344323FA00F09A
:100CAC00044323FA01F5A3B21946604600F05AF842
:100CBC004CF2503000F072F80346FB750D4B1B697B
:100CCC000C4A23F001031361FB7D002B07D1BB7D84
:100CDC000133BB75BA7D7B7D9A42CDD300E000BF5A
:100CEC00034B00221A76FB7D18461C37BD46F0BD1F
:100CFC00800000200020024080B483B000AF0023AD
:100D0C00FB710D4B1B6903F08003002B0DD00A4BBC
:100D1C000A4A5A60084B0A4A5A60074B1B6903F08F
:100D2C008003002B01D00123FB71FB7918460C3793
:100D3C00BD4680BC704700BF0020024023016745C0
:100D4C00AB89EFCD80B400AF054B1B69044A43F06F
:100D5C008003136100231846BD4680BC704700BF5A
:100D6C000020024080B483B000AF78600B467B80DB
:100D7C00084B0022DA61084B1B69074A43F0010358
:100D8C0013617B687A881A8000BF0C37BD4680BC23
:100D9C00704700BF800000200020024080B584B066
:100DAC0000AF7860FFF7D8FDF86010E07B68B3F116
:100DBC00FF3F0CD07B68002B07D0FFF7CDFD024620
:100DCC00FB68D31A7A689A4201D2032325E0154BAB
:100DDC00DB6803F00103002BE8D1124BDB6803F056
:100DEC002003002B02D00F4B2022DA600D4BDB6866
:100DFC0003F01003002B0BD10A4BDB6903F001034A
:100E0C00002B05D1074BDB6803F00403002B03D048
:100E1C0000F00AF8012300E0002318461037BD4605
:100E2C0080BD00BF0020024080B483B000AF00231F
:100E3C007B60234BDB6803F01003002B09D0214BA4
:100E4C00DB6943F002031F4AD3617B6843F0100354
:100E5C007B601B4BDB6803F00403002B09D0194BA0
:100E6C00DB6943F00103174AD3617B6843F0040349
:100E7C007B60134BDB6903F00103002B0BD0114B90
:100E8C00DB6943F004030F4AD3610D4BDB690C4A59
:100E9C0023F00103D3617B6840F20112934206D127
:100EAC00074BDB69064A23F00103D36102E0044AD5
:100EBC007B68D36000BF0C37BD4680BC704700BF59
:100ECC00002002408000002080B584B000AF786024
:100EDC0039600123FB730023BB602F4B1B7E012B5E
:100EEC0001D1022353E02C4B01221A767B681B683C
:100EFC00022B16D14CF25030FFF750FF0346002B5B
:100F0C0041D1012000F04CF84CF25030FFF746FF75
:100F1C000346FB73214B1B69204A23F00403136126
:100F2C0031E04CF25030FFF739FF0346002B2AD149
:100F3C003B684FF0FF321A607B689B68BB6019E01E
:100F4C00B86800F049F84CF25030FFF727FF034621
:100F5C00FB73124B1B69114A23F002031361FB7BD9
:100F6C00002B03D03B68BA681A600CE0BB6803F531
:100F7C008063BB607B68DB689A027B689B68134468
:100F8C00BA689A42DCD3044B00221A76FB7B1846D3
:100F9C001037BD4680BD00BF8000002000200240FD
:100FAC0080B483B000AF7860094B0022DA61094B42
:100FBC001B69084A43F004031361064B1B69054A7D
:100FCC0043F04003136100BF0C37BD4680BC704733
:100FDC00800000200020024080B483B000AF786015
:100FEC000B4B0022DA610B4B1B690A4A43F00203DC
:100FFC001361084A7B685361064B1B69054A43F031
:10100C004003136100BF0C37BD4680BC704700BF66
:10101C00800000200020024080B48BB000AF7860CC
:10102C00396000237B6200233B6269E101227B6A09
:10103C0002FA03F3FB613B681B68FA691340BB615E
:10104C00BA69FB699A4240F058813B685B689A4ADE
:10105C0093425ED0984A934275D8984A934258D09E
:10106C00964A93426FD8964A934252D0944A9342EE
:10107C0069D8944A93424CD0924A934263D8924A8C
:10108C00934246D0904A93425DD8122B2AD8122B09
:10109C0059D801A252F823F01F110008F9100008CA
:1010AC000B1100084D1100085311000853110008D2
:1010BC005311000853110008531100085311000874
:1010CC005311000853110008531100085311000864
:1010DC0053110008531100085311000801110008A6
:1010EC0015110008794A934213D02CE03B68DB6859
:1010FC003B6229E03B68DB6804333B6224E03B68DD
:10110C00DB6808333B621FE03B68DB680C333B62F7
:10111C001AE03B689B68002B02D104233B6213E06E
:10112C003B689B68012B05D108233B627B68FA69FD
:10113C001A6109E008233B627B68FA695A6103E093
:10114C0000233B6200E000BFBB69FF2B01D87B682A
:10115C0001E07B6804337B61BB69FF2B02D87B6A9F
:10116C009B0002E07B6A083B9B003B617B691A6831
:10117C000F213B6901FA03F3DB431A40396A3B69DF
:10118C0001FA03F31A437B691A603B685B6803F04E
:10119C008053002B00F0B1804D4B9B694C4A43F0BF
:1011AC00010393614A4B9B6903F00103BB60BB686D
:1011BC00484A7B6A9B08023352F82330FB607B6AF7
:1011CC0003F003039B000F2202FA03F3DB43FA68DC
:1011DC001340FB607B68404A934213D07B683F4AC4
:1011EC0093420DD07B683E4A934207D07B683D4AC0
:1011FC00934201D1032306E0042304E0022302E01E
:10120C00012300E000237A6A02F00302920093406B
:10121C00FA681343FB602F497B6A9B080233FA6818
:10122C0041F823203B685B6803F48013002B06D045
:10123C002D4B9A682C49BB6913438B6006E02A4BF3
:10124C009A68BB69DB43284913408B603B685B6839
:10125C0003F40013002B06D0234BDA682249BB6938
:10126C001343CB6006E0204BDA68BB69DB431E49B5
:10127C001340CB603B685B6803F40033002B06D053
:10128C00194B5A681849BB6913434B6006E0164B5F
:10129C005A68BB69DB43144913404B603B685B687D
:1012AC0003F48033002B21D00F4B1A680E49BB6915
:1012BC0013430B6021E000BF00003210000031101E
:1012CC00000022100000211000001210000011106C
:1012DC00001002400000014000080140000C0140D9
:1012EC000010014000140140000401400B4B1A682F
:1012FC00BB69DB43094913400B607B6A01337B629A
:10130C003B681A687B6A22FA03F3002B7FF48EAEDB
:10131C0000BF00BF2C37BD4680BC704700040140A5
:10132C0080B485B000AF78600B467B807B689A6890
:10133C007B881340002B02D00123FB7301E00023B8
:10134C00FB73FB7B18461437BD4680BC704780B4DA
:10135C0083B000AF78600B467B8013467B707B7844
:10136C00002B03D07A887B681A6103E07B881A040F
:10137C007B681A6100BF0C37BD4680BC704780B4D7
:10138C0085B000AF78600B467B807B68DB68FB60C8
:10139C007A88FB6813401A04FB68D9437B880B409E
:1013AC001A437B681A6100BF1437BD4680BC704776
:1013BC0080B586B000AF78607B68002B01D101232B
:1013CC0072E27B681B6803F00103002B00F087803E
:1013DC00924B5B6803F00C03042B0CD08F4B5B68B7
:1013EC0003F00C03082B12D18C4B5B6803F4803395
:1013FC00B3F5803F0BD1894B1B6803F40033002BF2
:10140C006CD07B685B68002B68D101234CE27B6855
:10141C005B68B3F5803F06D1804B1B687F4A43F471
:10142C00803313602EE07B685B68002B0CD17B4B08
:10143C001B687A4A23F480331360784B1B68774A15
:10144C0023F4802313601DE07B685B68B3F5A02F49
:10145C000CD1724B1B68714A43F4802313606F4BA1
:10146C001B686E4A43F4803313600BE06B4B1B68B4
:10147C006A4A23F480331360684B1B68674A23F471
:10148C00802313607B685B68002B13D0FFF764FA32
:10149C00386108E0FFF760FA02463B69D31A642B07
:1014AC0001D9032300E25D4B1B6803F40033002BCE
:1014BC00F0D014E0FFF750FA386108E0FFF74CFA6F
:1014CC0002463B69D31A642B01D90323ECE1534B3D
:1014DC001B6803F40033002BF0D100E000BF7B68E5
:1014EC001B6803F00203002B63D04C4B5B6803F0CA
:1014FC000C03002B0BD0494B5B6803F00C03082B3F
:10150C001CD1464B5B6803F48033002B16D1434B44
:10151C001B6803F00203002B05D07B681B69012BB1
:10152C0001D00123C0E13D4B1B6823F0F8027B681E
:10153C005B69DB00394913430B603AE07B681B693C
:10154C00002B20D0364B01221A60FFF705FA3861C8
:10155C0008E0FFF701FA02463B69D31A022B01D9C6
:10156C000323A1E12D4B1B6803F00203002BF0D0E9
:10157C002A4B1B6823F0F8027B685B69DB00274968
:10158C0013430B6015E0264B00221A60FFF7E4F9B9
:10159C00386108E0FFF7E0F902463B69D31A022BE9
:1015AC0001D9032380E11D4B1B6803F00203002BC0
:1015BC00F0D17B681B6803F00803002B3AD07B68E2
:1015CC009B69002B19D0174B01221A60FFF7C4F945
:1015DC00386108E0FFF7C0F902463B69D31A022BC9
:1015EC0001D9032360E10D4B5B6A03F00203002B6E
:1015FC00F0D0012000F0CEFA1CE00A4B00221A6059
:10160C00FFF7AAF938610FE0FFF7A6F902463B692C
:10161C00D31A022B08D9032346E100BF0010024065
:10162C000000424280044242924B5B6A03F0020388
:10163C00002BE9D17B681B6803F00403002B00F03E
:10164C00A6800023FB758B4BDB6903F08053002BCA
:10165C000DD1884BDB69874A43F08053D361854BAE
:10166C00DB6903F08053BB60BB680123FB75824BC5
:10167C001B6803F48073002B18D17F4B1B687E4AC8
:10168C0043F480731360FFF767F9386108E0FFF7E4
:10169C0063F902463B69D31A642B01D9032303E196
:1016AC00754B1B6803F48073002BF0D07B68DB68F0
:1016BC00012B06D16F4B1B6A6E4A43F00103136278
:1016CC002DE07B68DB68002B0CD16A4B1B6A694AE6
:1016DC0023F001031362674B1B6A664A23F0040371
:1016EC0013621CE07B68DB68052B0CD1614B1B6A19
:1016FC00604A43F0040313625E4B1B6A5D4A43F07D
:10170C00010313620BE05B4B1B6A5A4A23F0010383
:10171C001362584B1B6A574A23F0040313627B680D
:10172C00DB68002B15D0FFF717F938610AE0FFF7DB
:10173C0013F902463B69D31A41F28832934201D91C
:10174C000323B1E04B4B1B6A03F00203002BEED0DA
:10175C0014E0FFF701F938610AE0FFF7FDF80246E3
:10176C003B69D31A41F28832934201D903239BE09F
:10177C00404B1B6A03F00203002BEED1FB7D012BC7
:10178C0005D13C4BDB693B4A23F08053D3617B682A
:10179C00DB69002B00F08780364B5B6803F00C0391
:1017AC00082B61D07B68DB69022B46D1334B0022BE
:1017BC001A60FFF7D1F8386108E0FFF7CDF8024660
:1017CC003B69D31A022B01D903236DE0294B1B680B
:1017DC0003F00073002BF0D17B681B6AB3F5803FDC
:1017EC0008D1244B5B6823F400327B689B68214949
:1017FC0013434B601F4B5B6823F474127B68196AAC
:10180C007B685B6A0B431B4913434B601B4B0122E8
:10181C001A60FFF7A1F8386108E0FFF79DF802465F
:10182C003B69D31A022B01D903233DE0114B1B68F2
:10183C0003F00073002BF0D035E0104B00221A603F
:10184C00FFF78AF8386108E0FFF786F802463B6933
:10185C00D31A022B01D9032326E0064B1B6803F095
:10186C000073002BF0D11EE07B68DB69012B07D1E4
:10187C00012319E000100240007000406000424259
:10188C000B4B5B68FB60FB6803F480327B681B6A64
:10189C009A4206D1FB6803F470127B685B6A9A4229
:1018AC0001D0012300E0002318461837BD4680BD47
:1018BC000010024080B584B000AF786039607B685E
:1018CC00002B01D10123D0E06A4B1B6803F0070306
:1018DC003A689A4210D9674B1B6823F00702654996
:1018EC003B6813430B60634B1B6803F007033A68B8
:1018FC009A4201D00123B8E07B681B6803F0020315
:10190C00002B20D07B681B6803F00403002B05D050
:10191C00594B5B68584A43F4E06353607B681B681F
:10192C0003F00803002B05D0534B5B68524A43F479
:10193C0060535360504B5B6823F0F0027B689B68EC
:10194C004D4913434B607B681B6803F00103002B6C
:10195C0040D07B685B68012B07D1474B1B6803F4B5
:10196C000033002B15D101237FE07B685B68022BD1
:10197C0007D1414B1B6803F00073002B09D10123E5
:10198C0073E03D4B1B6803F00203002B01D10123D4
:10199C006BE0394B5B6823F003027B685B6836496C
:1019AC0013434B60FEF7D8FFF8600AE0FEF7D4FF54
:1019BC000246FB68D31A41F28832934201D90323C1
:1019CC0053E02D4B5B6803F00C027B685B689B005B
:1019DC009A42EBD1274B1B6803F007033A689A42F3
:1019EC0010D2244B1B6823F0070222493B68134397
:1019FC000B60204B1B6803F007033A689A4201D036
:101A0C00012332E07B681B6803F00403002B08D031
:101A1C00194B5B6823F4E0627B68DB68164913435F
:101A2C004B607B681B6803F00803002B09D0124B3A
:101A3C005B6823F460527B681B69DB000E4913431F
:101A4C004B6000F021F802460B4B5B681B0903F05E
:101A5C000F030A49CB5C22FA03F3094A1360094BC2
:101A6C001B681846FEF736FF002318461037BD4694
:101A7C0080BD00BF002002400010024088220008F8
:101A8C00000000200400002080B487B000AF0023C9
:101A9C00FB600023BB6000237B6100237B60002381
:101AAC003B611E4B5B68FB60FB6803F00C03042B73
:101ABC0002D0082B03D027E0194B3B6127E0FB68D1
:101ACC009B0C03F00F03174AD35C7B60FB6803F499
:101ADC008033002B10D0114B5B685B0C03F00103BF
:101AEC00114AD35CBB607B680D4A03FB02F2BB68F6
:101AFC00B2FBF3F37B6104E07B680C4A02FB03F35B
:101B0C007B617B693B6102E0054B3B6100BF3B693C
:101B1C0018461C37BD4680BC704700BF0010024001
:101B2C0000127A00A0220008B022000800093D0033
:101B3C0080B400AF024B1B681846BD4680BC704792
:101B4C000000002080B500AFFFF7F2FF0246054B06
:101B5C005B681B0A03F007030349CB5C22FA03F30F
:101B6C00184680BD001002409822000880B500AFD6
:101B7C00FFF7DEFF0246054B5B68DB0A03F0070349
:101B8C000349CB5C22FA03F3184680BD00100240D7
:101B9C009822000880B485B000AF78600A4B1B68AF
:101BAC000A4AA2FB03235B0A7A6802FB03F3FB607D
:101BBC0000BFFB685A1EFA60002BF9D100BF00BFB2
:101BCC001437BD4680BC704700000020D34D621016
:101BDC0080B582B000AF78607B68002B01D1012307
:101BEC0042E07B6893F84130DBB2002B06D17B6876
:101BFC00002283F840207868FEF764FD7B6824227D
:101C0C0083F841207B681B68DA687B681B6822F4C8
:101C1C000052DA60786800F009FA7B681B681A6970
:101C2C007B681B6822F490421A617B681B685A69B6
:101C3C007B681B6822F02A025A617B681B68DA6891
:101C4C007B681B6842F40052DA607B6800225A649D
:101C5C007B68202283F841207B68202283F8422075
:101C6C007B6800225A63002318460837BD4680BDA6
:101C7C0080B58AB002AFF860B9603B601346FB8058
:101C8C0000237B61FB6893F84130DBB2202B75D1CC
:101C9C00BB68002B02D0FB88002B01D101236EE026
:101CAC00FB6800225A64FB68212283F84120FEF76E
:101CBC0053FE7861FB68FA889A84FB68FA88DA84A8
:101CCC00FB689B68B3F5805F08D1FB681B69002B30
:101CDC0004D10023FB61BB68BB6103E0BB68FB6103
:101CEC000023BB612EE03B6800937B6900228021BE
:101CFC00F86800F0DFF80346002B05D0FB682022C3
:101D0C0083F8412003233AE0FB69002B0BD1BB691C
:101D1C001B881A46FB681B68C2F308025A60BB6931
:101D2C000233BB6107E0FB691A78FB681B685A60D9
:101D3C00FB690133FB61FB68DB8C9BB2013B9AB204
:101D4C00FB68DA84FB68DB8C9BB2002BCBD13B6845
:101D5C0000937B6900224021F86800F0ABF8034641
:101D6C00002B05D0FB68202283F84120032306E0DA
:101D7C00FB68202283F84120002300E00223184650
:101D8C002037BD4680BD80B58AB002AFF860B9601F
:101D9C003B601346FB8000237B61FB6893F8423069
:101DAC00DBB2202B40F08180BB68002B02D0FB887B
:101DBC00002B01D1012379E0FB6800225A64FB68F7
:101DCC00222283F84220FB6800221A63FEF7C4FD2E
:101DDC007861FB68FA889A85FB68FA88DA85FB6873
:101DEC009B68B3F5805F08D1FB681B69002B04D19D
:101DFC000023FB61BB68BB6103E0BB68FB61002394
:101E0C00BB6147E03B6800937B6900222021F868A6
:101E1C0000F050F80346002B05D0FB68202283F815
:101E2C004220032342E0FB69002B0CD1FB681B68AA
:101E3C005B689BB2C3F308039AB2BB691A80BB6997
:101E4C000233BB611FE0FB689B68B3F5805F07D072
:101E5C00FB689B68002B0AD1FB681B69002B06D121
:101E6C00FB681B685B68DAB2FB691A7008E0FB68F8
:101E7C001B685B68DBB203F07F03DAB2FB691A7094
:101E8C00FB690133FB61FB68DB8D9BB2013B9AB2B2
:101E9C00FB68DA85FB68DB8D9BB2002BB2D1FB684B
:101EAC00202283F84220002300E00223184620372A
:101EBC00BD4680BD80B586B000AFF860B9603B60B0
:101ECC001346FB713BE03B6AB3F1FF3F37D0FEF7A3
:101EDC0043FD02463B68D31A3A6A9A4202D33B6AE4
:101EEC00002B01D103233AE0FB681B68DB6803F08D
:101EFC000403002B23D0BB68802B20D0BB68402B65
:101F0C001DD0FB681B681B6803F00803082B16D157
:101F1C0000237B61FB681B681B687B61FB681B688B
:101F2C005B687B617B69F86800F01DF8FB68082230
:101F3C005A64FB68002283F8402001230FE0FB6801
:101F4C001B681A68BB681340BA689A420CBF01231D
:101F5C000023DBB21A46FB799A42B4D00023184610
:101F6C001837BD4680BD80B495B000AF78607B68F3
:101F7C001B680C337B637B6B53E8003F3B633B6B11
:101F8C0023F49073FB647B681B680C33FA6C3A6423
:101F9C00FB63F96B3A6C41E80023BB63BB6B002B12
:101FAC00E5D17B681B6814333B623B6A53E8003F06
:101FBC00FB61FB6923F00103BB647B681B68143372
:101FCC00BA6CFA62BB62B96AFA6A41E800237B62B6
:101FDC007B6A002BE5D17B681B6B012B19D17B68CD
:101FEC001B680C33FB60FB6853E8003FBB60BB68AD
:101FFC0023F010037B647B681B680C337A6CBA612A
:10200C007B617969BA6941E800233B613B69002B2C
:10201C00E5D17B68202283F842207B6800221A637A
:10202C0000BF5437BD4680BC7047000080B584B0FB
:10203C0000AF78607B681B681B6923F440517B6898
:10204C00DA687B681B680A431A617B689A687B684C
:10205C001B691A437B685B691343BB607B681B6815
:10206C00DB6823F4B05323F00C037A681268B96868
:10207C000B43D3607B681B685B6923F440717B68FE
:10208C009A697B681B680A435A617B681B682C4AF7
:10209C00934203D1FFF76AFDF86002E0FFF752FDAF
:1020AC00F860FA6813469B0013449A001A447B6844
:1020BC005B689B00B2FBF3F3224AA2FB03235B0990
:1020CC001901FA6813469B0013449A001A447B6862
:1020DC005B689B00B2FBF3F21A4BA3FB02035B0998
:1020EC00642000FB03F3D31A1B013233154AA2FB05
:1020FC0003235B0903F0F0031944FA6813469B00B1
:10210C0013449A001A447B685B689B00B2FBF3F2A1
:10211C000C4BA3FB02035B09642000FB03F3D31AF3
:10212C001B013233074AA2FB03235B0903F00F02A6
:10213C007B681B680A449A6000BF1037BD4680BD9F
:10214C00003801401F85EB5103460244934200D1F5
:10215C00704703F8011BF9E770B500260C4D0D4CC8
:10216C00641BA410A64209D100F028F800260A4DE1
:10217C000A4C641BA410A64205D170BD55F8043B53
:10218C0098470136EEE755F8043B98470136F2E7DD
:10219C00BC220008BC220008BC220008C022000897
:1021AC000A44914200F1FF3300D1704710B511F889
:1021BC00014B914203F8014FF9D110BDF8B500BFA6
:1021CC00F8BC08BC9E467047F8B500BFF8BC08BC0C
:0421DC009E46704764
:1021E0000A4F5441205570646174652052657175C1
:1021F00065737465640A0000435243205061737331
:1022000065642E20466C617368696E67206E657721
:10221000206669726D776172652E2E2E0A000000AD
:102220004669726D7761726520757064617465646A
:10223000207375636365737366756C6C792E0A0021
:10224000435243204661696C65642E204C61756E73
:102250006368696E67206572726F722068616E6470
:102260006C65722E0A000000426F6F74696E672001
:102270006D61696E206170706C69636174696F6E05
:102280002E2E2E0A000000000000000000000000BA
:10229000010203040607080900000000010203040C
:1022A00002030405060708090A0B0C0D0E0F101097
:0422B0000102000027
:0822B40098DEFF7F010000002D
:0422BC0031010008E4
:0422C0000D01000804
:0C22C40000127A00100000000100000071
:040000050800082DBA
:00000001FF
